{
  "contractName": "Ribon",
  "abi": [
    {
      "inputs": [
        {
          "internalType": "address",
          "name": "_donationToken",
          "type": "address"
        }
      ],
      "stateMutability": "nonpayable",
      "type": "constructor"
    },
    {
      "inputs": [],
      "name": "donationPoolBalance",
      "outputs": [
        {
          "internalType": "uint256",
          "name": "",
          "type": "uint256"
        }
      ],
      "stateMutability": "view",
      "type": "function",
      "constant": true
    },
    {
      "inputs": [],
      "name": "donationToken",
      "outputs": [
        {
          "internalType": "contract IERC20",
          "name": "",
          "type": "address"
        }
      ],
      "stateMutability": "view",
      "type": "function",
      "constant": true
    },
    {
      "inputs": [
        {
          "internalType": "address",
          "name": "",
          "type": "address"
        }
      ],
      "name": "integrationBalance",
      "outputs": [
        {
          "internalType": "uint256",
          "name": "",
          "type": "uint256"
        }
      ],
      "stateMutability": "view",
      "type": "function",
      "constant": true
    },
    {
      "inputs": [
        {
          "internalType": "address",
          "name": "",
          "type": "address"
        }
      ],
      "name": "userBalance",
      "outputs": [
        {
          "internalType": "uint256",
          "name": "",
          "type": "uint256"
        }
      ],
      "stateMutability": "view",
      "type": "function",
      "constant": true
    },
    {
      "inputs": [],
      "name": "getDonationPoolBalance",
      "outputs": [
        {
          "internalType": "uint256",
          "name": "",
          "type": "uint256"
        }
      ],
      "stateMutability": "view",
      "type": "function",
      "constant": true
    },
    {
      "inputs": [
        {
          "internalType": "address",
          "name": "_integration",
          "type": "address"
        }
      ],
      "name": "getIntegrationBalance",
      "outputs": [
        {
          "internalType": "uint256",
          "name": "",
          "type": "uint256"
        }
      ],
      "stateMutability": "view",
      "type": "function",
      "constant": true
    },
    {
      "inputs": [
        {
          "internalType": "address",
          "name": "_user",
          "type": "address"
        }
      ],
      "name": "getUserBalance",
      "outputs": [
        {
          "internalType": "uint256",
          "name": "",
          "type": "uint256"
        }
      ],
      "stateMutability": "view",
      "type": "function",
      "constant": true
    },
    {
      "inputs": [
        {
          "internalType": "uint256",
          "name": "_amount",
          "type": "uint256"
        }
      ],
      "name": "deposit",
      "outputs": [],
      "stateMutability": "nonpayable",
      "type": "function"
    },
    {
      "inputs": [
        {
          "internalType": "address",
          "name": "_integration",
          "type": "address"
        },
        {
          "internalType": "uint256",
          "name": "_amount",
          "type": "uint256"
        }
      ],
      "name": "allowIntegrationDistribute",
      "outputs": [],
      "stateMutability": "nonpayable",
      "type": "function"
    },
    {
      "inputs": [
        {
          "internalType": "address",
          "name": "_user",
          "type": "address"
        },
        {
          "internalType": "uint256",
          "name": "_amount",
          "type": "uint256"
        }
      ],
      "name": "allowUserDonate",
      "outputs": [],
      "stateMutability": "nonpayable",
      "type": "function"
    },
    {
      "inputs": [
        {
          "internalType": "address",
          "name": "_nonProfit",
          "type": "address"
        },
        {
          "internalType": "uint256",
          "name": "_amount",
          "type": "uint256"
        }
      ],
      "name": "donate",
      "outputs": [],
      "stateMutability": "nonpayable",
      "type": "function"
    }
  ],
  "bytecode": "0x608060405234801561001057600080fd5b5060405161109d38038061109d8339818101604052810190610032919061008d565b806000806101000a81548173ffffffffffffffffffffffffffffffffffffffff021916908373ffffffffffffffffffffffffffffffffffffffff160217905550506100ff565b600081519050610087816100e8565b92915050565b60006020828403121561009f57600080fd5b60006100ad84828501610078565b91505092915050565b60006100c1826100c8565b9050919050565b600073ffffffffffffffffffffffffffffffffffffffff82169050919050565b6100f1816100b6565b81146100fc57600080fd5b50565b610f8f8061010e6000396000f3fe608060405234801561001057600080fd5b50600436106100a95760003560e01c806365296d0c1161007157806365296d0c146101785780636c55e64a146101965780638896a085146101b2578063a52c4b5c146101e2578063b6b55f2514610200578063e69d849d1461021c576100a9565b80630103c92b146100ae5780630df72159146100de57806347734892146100fc578063529b179d1461012c5780636104647c14610148575b600080fd5b6100c860048036038101906100c391906109f0565b610238565b6040516100d59190610d5e565b60405180910390f35b6100e6610250565b6040516100f39190610cc1565b60405180910390f35b610116600480360381019061011191906109f0565b610274565b6040516101239190610d5e565b60405180910390f35b61014660048036038101906101419190610a19565b6102bd565b005b610162600480360381019061015d91906109f0565b610363565b60405161016f9190610d5e565b60405180910390f35b6101806103ac565b60405161018d9190610d5e565b60405180910390f35b6101b060048036038101906101ab9190610a19565b6103b6565b005b6101cc60048036038101906101c791906109f0565b6104d6565b6040516101d99190610d5e565b60405180910390f35b6101ea6104ee565b6040516101f79190610d5e565b60405180910390f35b61021a60048036038101906102159190610a7e565b6104f4565b005b61023660048036038101906102319190610a19565b610558565b005b60036020528060005260406000206000915090505481565b60008054906101000a900473ffffffffffffffffffffffffffffffffffffffff1681565b6000600360008373ffffffffffffffffffffffffffffffffffffffff1673ffffffffffffffffffffffffffffffffffffffff168152602001908152602001600020549050919050565b806001546102cb9190610e01565b60018190555080600260008473ffffffffffffffffffffffffffffffffffffffff1673ffffffffffffffffffffffffffffffffffffffff1681526020019081526020016000205461031c9190610dab565b600260008473ffffffffffffffffffffffffffffffffffffffff1673ffffffffffffffffffffffffffffffffffffffff168152602001908152602001600020819055505050565b6000600260008373ffffffffffffffffffffffffffffffffffffffff1673ffffffffffffffffffffffffffffffffffffffff168152602001908152602001600020549050919050565b6000600154905090565b80600360008473ffffffffffffffffffffffffffffffffffffffff1673ffffffffffffffffffffffffffffffffffffffff168152602001908152602001600020546104019190610dab565b600360008473ffffffffffffffffffffffffffffffffffffffff1673ffffffffffffffffffffffffffffffffffffffff1681526020019081526020016000208190555080600260003373ffffffffffffffffffffffffffffffffffffffff1673ffffffffffffffffffffffffffffffffffffffff1681526020019081526020016000205461048f9190610e01565b600260003373ffffffffffffffffffffffffffffffffffffffff1673ffffffffffffffffffffffffffffffffffffffff168152602001908152602001600020819055505050565b60026020528060005260406000206000915090505481565b60015481565b806001546105029190610dab565b60018190555061055533308360008054906101000a900473ffffffffffffffffffffffffffffffffffffffff1673ffffffffffffffffffffffffffffffffffffffff16610635909392919063ffffffff16565b50565b80600360003373ffffffffffffffffffffffffffffffffffffffff1673ffffffffffffffffffffffffffffffffffffffff168152602001908152602001600020546105a39190610e01565b600360003373ffffffffffffffffffffffffffffffffffffffff1673ffffffffffffffffffffffffffffffffffffffff16815260200190815260200160002081905550610631828260008054906101000a900473ffffffffffffffffffffffffffffffffffffffff1673ffffffffffffffffffffffffffffffffffffffff166106be9092919063ffffffff16565b5050565b6106b8846323b872dd60e01b85858560405160240161065693929190610c61565b604051602081830303815290604052907bffffffffffffffffffffffffffffffffffffffffffffffffffffffff19166020820180517bffffffffffffffffffffffffffffffffffffffffffffffffffffffff8381831617835250505050610744565b50505050565b61073f8363a9059cbb60e01b84846040516024016106dd929190610c98565b604051602081830303815290604052907bffffffffffffffffffffffffffffffffffffffffffffffffffffffff19166020820180517bffffffffffffffffffffffffffffffffffffffffffffffffffffffff8381831617835250505050610744565b505050565b60006107a6826040518060400160405280602081526020017f5361666545524332303a206c6f772d6c6576656c2063616c6c206661696c65648152508573ffffffffffffffffffffffffffffffffffffffff1661080b9092919063ffffffff16565b905060008151111561080657808060200190518101906107c69190610a55565b610805576040517f08c379a00000000000000000000000000000000000000000000000000000000081526004016107fc90610d3e565b60405180910390fd5b5b505050565b606061081a8484600085610823565b90509392505050565b606082471015610868576040517f08c379a000000000000000000000000000000000000000000000000000000000815260040161085f90610cfe565b60405180910390fd5b61087185610937565b6108b0576040517f08c379a00000000000000000000000000000000000000000000000000000000081526004016108a790610d1e565b60405180910390fd5b6000808673ffffffffffffffffffffffffffffffffffffffff1685876040516108d99190610c4a565b60006040518083038185875af1925050503d8060008114610916576040519150601f19603f3d011682016040523d82523d6000602084013e61091b565b606091505b509150915061092b82828661094a565b92505050949350505050565b600080823b905060008111915050919050565b6060831561095a578290506109aa565b60008351111561096d5782518084602001fd5b816040517f08c379a00000000000000000000000000000000000000000000000000000000081526004016109a19190610cdc565b60405180910390fd5b9392505050565b6000813590506109c081610f14565b92915050565b6000815190506109d581610f2b565b92915050565b6000813590506109ea81610f42565b92915050565b600060208284031215610a0257600080fd5b6000610a10848285016109b1565b91505092915050565b60008060408385031215610a2c57600080fd5b6000610a3a858286016109b1565b9250506020610a4b858286016109db565b9150509250929050565b600060208284031215610a6757600080fd5b6000610a75848285016109c6565b91505092915050565b600060208284031215610a9057600080fd5b6000610a9e848285016109db565b91505092915050565b610ab081610e35565b82525050565b6000610ac182610d79565b610acb8185610d8f565b9350610adb818560208601610ea1565b80840191505092915050565b610af081610e7d565b82525050565b6000610b0182610d84565b610b0b8185610d9a565b9350610b1b818560208601610ea1565b610b2481610f03565b840191505092915050565b6000610b3c602683610d9a565b91507f416464726573733a20696e73756666696369656e742062616c616e636520666f60008301527f722063616c6c00000000000000000000000000000000000000000000000000006020830152604082019050919050565b6000610ba2601d83610d9a565b91507f416464726573733a2063616c6c20746f206e6f6e2d636f6e74726163740000006000830152602082019050919050565b6000610be2602a83610d9a565b91507f5361666545524332303a204552433230206f7065726174696f6e20646964206e60008301527f6f742073756363656564000000000000000000000000000000000000000000006020830152604082019050919050565b610c4481610e73565b82525050565b6000610c568284610ab6565b915081905092915050565b6000606082019050610c766000830186610aa7565b610c836020830185610aa7565b610c906040830184610c3b565b949350505050565b6000604082019050610cad6000830185610aa7565b610cba6020830184610c3b565b9392505050565b6000602082019050610cd66000830184610ae7565b92915050565b60006020820190508181036000830152610cf68184610af6565b905092915050565b60006020820190508181036000830152610d1781610b2f565b9050919050565b60006020820190508181036000830152610d3781610b95565b9050919050565b60006020820190508181036000830152610d5781610bd5565b9050919050565b6000602082019050610d736000830184610c3b565b92915050565b600081519050919050565b600081519050919050565b600081905092915050565b600082825260208201905092915050565b6000610db682610e73565b9150610dc183610e73565b9250827fffffffffffffffffffffffffffffffffffffffffffffffffffffffffffffffff03821115610df657610df5610ed4565b5b828201905092915050565b6000610e0c82610e73565b9150610e1783610e73565b925082821015610e2a57610e29610ed4565b5b828203905092915050565b6000610e4082610e53565b9050919050565b60008115159050919050565b600073ffffffffffffffffffffffffffffffffffffffff82169050919050565b6000819050919050565b6000610e8882610e8f565b9050919050565b6000610e9a82610e53565b9050919050565b60005b83811015610ebf578082015181840152602081019050610ea4565b83811115610ece576000848401525b50505050565b7f4e487b7100000000000000000000000000000000000000000000000000000000600052601160045260246000fd5b6000601f19601f8301169050919050565b610f1d81610e35565b8114610f2857600080fd5b50565b610f3481610e47565b8114610f3f57600080fd5b50565b610f4b81610e73565b8114610f5657600080fd5b5056fea2646970667358221220f52a3a9f3300145c6d28a93ef1fc5094b166dc0b58818407d117d977bd5ce42b64736f6c63430008000033",
  "immutableReferences": {},
  "source": "// SPDX-License-Identifier: MIT\npragma solidity ^0.8.0;\n\nimport \"@openzeppelin/contracts/token/ERC20/IERC20.sol\";\nimport \"@openzeppelin/contracts/utils/Address.sol\";\nimport \"@openzeppelin/contracts/token/ERC20/ERC20.sol\";\nimport \"@openzeppelin/contracts/token/ERC20/utils/SafeERC20.sol\";\n\ncontract Ribon {\n    using SafeERC20 for IERC20;\n    IERC20 public donationToken;\n\n    uint256 public donationPoolBalance;\n    mapping(address => uint256) public integrationBalance;\n    mapping(address => uint256) public userBalance;\n\n    constructor(address _donationToken) {\n        donationToken = IERC20(_donationToken);\n    }\n\n    function getDonationPoolBalance() public view returns (uint256) {\n        return donationPoolBalance;\n    }\n\n    function getIntegrationBalance(address _integration)\n        public\n        view\n        returns (uint256)\n    {\n        return integrationBalance[_integration];\n    }\n\n    function getUserBalance(address _user) public view returns (uint256) {\n        return userBalance[_user];\n    }\n\n    function deposit(uint256 _amount) public {\n        donationPoolBalance = donationPoolBalance + _amount;\n        donationToken.safeTransferFrom(msg.sender, address(this), _amount);\n    }\n\n    function allowIntegrationDistribute(address _integration, uint256 _amount)\n        public\n    {\n        donationPoolBalance = donationPoolBalance - _amount;\n        integrationBalance[_integration] =\n            integrationBalance[_integration] +\n            _amount;\n    }\n\n    function allowUserDonate(address _user, uint256 _amount) public {\n        userBalance[_user] = userBalance[_user] + _amount;\n        integrationBalance[msg.sender] =\n            integrationBalance[msg.sender] -\n            _amount;\n    }\n\n    function donate(address _nonProfit, uint256 _amount) public {\n        userBalance[msg.sender] = userBalance[msg.sender] - _amount;\n        donationToken.safeTransfer(_nonProfit, _amount);\n    }\n}\n",
  "sourcePath": "/Users/ribon/Projects/Ribon/crypto/ribon-v1-core/contracts/Ribon.sol",
  "compiler": {
    "name": "solc",
    "version": "0.8.0+commit.c7dfd78e.Emscripten.clang"
  },
  "schemaVersion": "3.3.1",
  "updatedAt": "2021-06-14T21:12:32.020Z",
  "networkType": "ethereum",
  "devdoc": {
    "kind": "dev",
    "methods": {},
    "version": 1
  },
  "userdoc": {
    "kind": "user",
    "methods": {},
    "version": 1
  }
}